:020000040800F2
:10000000C8320010550300085D600008A54B0008C9
:100010003D5F000851120008C16A0008000000009E
:100020000000000000000000000000009502000831
:100030009513000800000000F1020008B5620008F6
:100040006F0300086F0300086F0300086F030008C8
:100050006F0300086F0300086F0300086F030008B8
:100060006F0300086F0300086F0300086F030008A8
:100070006F0300086F0300086F0300086F03000898
:100080006F0300086F030008C50900086F0300082C
:100090006F0300086F0300086F0300086F03000878
:1000A0006F0300086F0300086F0300086F03000868
:1000B0006F0300086F0300086F0300086F03000858
:1000C0006F0300086F0300086F0300086F03000848
:1000D0006F030008516900086F0300086F030008F0
:1000E000A51300086F0300086F0300086F030008E2
:1000F0006F0300086F0300086F0300086F03000818
:100100006F0300086F0300086F0300086F03000807
:100110006F0300086F030008756300086F03000891
:100120006F0300086F0300086F0300086F030008E7
:100130006F0300086F0300086F0300086F030008D7
:100140006F0300086F0300086F0300086F030008C7
:100150006F0300086F0300086F0300086F030008B7
:100160006F0300086F0300086F0300086F030008A7
:100170006F0300086F0300086F0300080000000011
:100180006F0300086F0300086F0300086F03000887
:100190006F0300086F0300086F0300086F03000877
:1001A000215400086F0300087512000800F002F8DF
:1001B00000F061F80AA090E8000C82448344AAF1A0
:1001C0000107DA4501D100F056F8AFF2090EBAE89E
:1001D0000F0013F0010F18BFFB1A43F0010318477B
:1001E00058F5030098F503000A444FF0000C10F88E
:1001F000013B13F0070408BF10F8014B1D1108BFA5
:1002000010F8015B641E05D010F8016B641E01F844
:10021000016BF9D113F0080F1EBF10F8014BAD1C94
:100220000C1B09D16D1E58BF01F801CBFAD505E0B2
:1002300014F8016B01F8016B6D1EF9D59142D6D30C
:10024000704700000023002400250026103A28BF34
:1002500078C1FBD8520728BF30C148BF0B60704738
:10026000642900F05D81002070471FB52FF093FDD9
:100270001FBD10B510BD00F077FB1146FFF7F5FF6D
:1002800027F0CCF800F095FB03B4FFF7F2FF03BCB6
:1002900000F0D2FA2C4B19680868B0E8F04F80F3F0
:1002A0000988BFF36F8F4FF0000080F3118870470B
:1002B0000000000008480068006880F308884FF0DC
:1002C000000080F3148862B661B6BFF34F8FBFF3AE
:1002D0006F8F00DF00BF00BF08ED00E0DFF80C000B
:1002E000016841F470010160704700BF88ED00E0D3
:1002F000EFF30980BFF36F8F134B1A681EF0100FD6
:1003000008BF20ED108A20E9F04F106009B44FF0CB
:10031000500080F31188BFF34F8FBFF36F8F2EF023
:10032000F9F84FF0000080F3118809BC19680868DB
:10033000B0E8F04F1EF0100F08BFB0EC108A80F349
:100340000988BFF36F8F7047D0010010EFF305806D
:10035000704700000948804709480047FEE7FEE76C
:10036000FEE7FEE7FEE7FEE7FEE7FEE7FEE7FEE765
:1003700004480549054A064B7047000065630008BC
:10038000AD010008C8120010C8320010C8220010C9
:10039000C822001053EA020C00F069802DE9F04BEE
:1003A0004FF00006002B1FBFB3FA83F503FA05F4E4
:1003B00024FA05F65E4012BF1643B2FA82F502FA3D
:1003C00005F4C5F120051EBF22FA05FC44EA0C0421
:1003D000203556EA044C4FEA144418BF641C4FF011
:1003E00000084FF00009904271EB030C39D300294B
:1003F00019BFB1FA81F701FA07F6B0FA80F700FAEF
:1004000007F6C7F120071EBF20FA07FC46EA0C06D4
:100410002037B6FBF4FCA7EB0507103F07F01F0BD6
:10042000CBF120060CFA0BFB2CFA06F644BFB346C0
:100430000026202FA4BF5E464FF0000B5BEA060C9F
:1004400008BF4FF0010B19EB0B09ABFB027C48EB2B
:100450000608C01B06FB02CC0BFB03CC71EB0C01A6
:10046000C1E70B46024641464846BDE8F08B13B54E
:100470004FF000004FF00001AFF30080BDE81C40DA
:10048000704700000FB41CB50C0007AA009001D003
:100490002044401E074B7B4469460190069800F0BB
:1004A0003AFA002C03D06946002000F047FA1CBC41
:1004B0005DF814FBAD0400002DE9F0410E46044642
:1004C000002020622046E168884730B3252805D007
:1004D000D4E901219047206A401CF2E7E1682046F8
:1004E00000278847050018D0A5F14100192802D837
:1004F00020354FF400673246294620462760FFF733
:10050000AFFE40B1012804D0F61D26F007060836DC
:10051000D8E7361DD6E72846DAE7206ABDE8F0813D
:100520002DE9F0410646002410687529314616A5CC
:1005300010D0AFF30080002802DA404213A507E094
:1005400031688A0701D512A502E0490704D511A533
:10055000012401E0AFF3008000210A2206F1240704
:1005600009E0B0FBF2FCB0FBF2F302FB1C00303000
:1005700078541846491C0028F3D123462A463046B1
:10058000BDE8F04100F069B9000000002D00000056
:100590002B0000002000000040EA0103024630B5B5
:1005A0009B0710D14FF0013400E008C208C91D1BA1
:1005B0009D4315EAC41FF8D013F0FF0102F8011B98
:1005C0000DD01B0AF8E711F8013B002B02F8013BA4
:1005D00005D011F8013B002B02F8013BF3D130BDEF
:1005E00010B5431C02E010F8011B71B18107FAD16C
:1005F0004FF0013202C88C1A8C4314EAC211F9D0B0
:10060000C01A0A0603D0C01E10BDC01A10BD0A04CD
:1006100001D0801E10BD0902FCD0401E10BD032A6F
:1006200040F2308010F0030C00F0158011F8013B0F
:10063000BCF1020F624498BF11F801CB00F8013BF6
:1006400038BF11F8013BA2F1040298BF00F801CBBA
:1006500038BF00F8013B11F0030300F02580083A91
:10066000C0F0088051F8043B083A51F804CBA0E8E8
:100670000810F5E7121D5CBF51F8043B40F8043B3D
:10068000AFF30080D20724BF11F8013B11F801CB72
:1006900048BF11F8012B24BF00F8013B00F801CB43
:1006A00048BF00F8012B704710B5203AC0F00B800E
:1006B000B1E81850203AA0E81850B1E81850A0E866
:1006C0001850BFF4F5AF5FEA027C24BFB1E81850C0
:1006D000A0E8185044BF18C918C0BDE810405FEA30
:1006E000827C24BF51F8043B40F8043B08BF7047AC
:1006F000D20728BF31F8023B48BF11F8012B28BFB1
:1007000020F8023B48BF00F8012B704702F0FF03BE
:1007100043EA032242EA024200F002B84FF000022C
:100720000429C0F0128010F0030C00F01B80CCF103
:10073000040CBCF1020F18BF00F8012BA8BF20F871
:10074000022BA1EB0C0100F00DB85FEAC17C24BFC5
:1007500000F8012B00F8012B48BF00F8012B70476F
:100760004FF0000200B5134694469646203922BF4A
:10077000A0E80C50A0E80C50B1F12001BFF4F7AF95
:10078000090728BFA0E80C5048BF0CC05DF804EB77
:10079000890028BF40F8042B08BF704748BF20F8E5
:1007A000022B11F0804F18BF00F8012B704700009A
:1007B0004FF0013C50F8042B51F8043B9A4221D1F0
:1007C000A2EB0C03934313EACC1317D150F8042B7C
:1007D00051F8043B9A4215D1A2EB0C03934313EA60
:1007E000CC130BD150F8042B51F8043B9A4209D199
:1007F000A2EB0C03934313EACC13DBD04FF00000C1
:10080000704700BFD01A01BAB1FA81F101F01801A6
:1008100022FA01F0CB40C1F12001DBB2C0B2C01A14
:100820002CFA01F3D11A914311EAC311E6D17047B2
:10083000704770477047000001491820ABBEFEE7C3
:100840002600020010B500F087F8006810BD10B552
:10085000044600F081F8046010BD2DE9F0470D4614
:1008600099469246044600F124080168880604D59A
:10087000E06921F01001216000E00120A84201DDC3
:10088000471B00E00027A1697A1902EB0900081A4A
:10089000A0612078C00602D42046AFF30080002675
:1008A00008E0D4E901211AF806009047206A401CAC
:1008B000761C20624E45F4DB2078C0060AD520461F
:1008C000AFF3008006E0D4E9012130209047206A90
:1008D000401C2062381EA7F10107F4DC07E0D4E9D0
:1008E000012118F805009047206A401C2062281E4C
:1008F000A5F10105F3DC2046AFF300802078000667
:1009000002D50220BDE8F0870120FBE701694A1CFF
:1009100002610878704700B58FB0CDE90131002140
:10092000059105497944CDE9031011466846FFF762
:10093000C3FD0FB000BD0000E5FFFFFF0A6802F82D
:10094000010B0A607047D1E900239A4202D2531C7E
:100950000B601070704770470048704764120010B9
:1009600000487047641200107546FFF7F9FFAE4665
:1009700005006946534620F00700854618B020B5AB
:10098000FFF7F6FCBDE820404FF000064FF00007EF
:100990004FF000084FF0000B21F00701AC46ACE827
:1009A000C009ACE8C009ACE8C009ACE8C0098D4694
:1009B000704710B50446AFF300802046BDE81040F4
:1009C000FFF762BC10B5044800F095FEBDE810408A
:1009D000024800F090BE0000240200106C020010DB
:1009E000464910B54A6822F440324A604A68436872
:1009F0001A434A6001684A6822F480724A600168BA
:100A00004A68036942EA03224A6001684A6822F0A0
:100A100040724A6001684A6883681A434A60016804
:100A20008A6822F400628A6001688A68C3681A438F
:100A30008A60816A6FF07062D14201688A6822F030
:100A400070628A6001688A680CD0836A1A438A607F
:100A500001688A6822F040528A6001688A68C36A25
:100A60001A4301E022F040528A6001688A6822F04D
:100A700002028A6001688A68037E42EA43028A6051
:100A800090F82010002901684A680FD042F40062F3
:100A90004A6001684A6822F460424A6001684A6814
:100AA000174C436A04EB43331A4301E022F400621B
:100AB0004A600168CA6A22F47002CA620168CA6A9E
:100AC000838B104C04EB03531A43CA6201688A6893
:100AD00022F400728A6001688A6890F8303042EA35
:100AE00043228A6001688A6822F480628A60016811
:100AF0008A68406942EA8020886010BD0023014076
:100B000000E0FFFF0000F0FFDFF8E08000270A268A
:100B100040F6B83A40F68C297D1EA8F114043448FA
:100B200000F058FF2946324800F0FEFE304800F041
:100B3000DFFD60602F4800F04DFF29462D4800F092
:100B4000F3FE2C4800F0D4FD2060002801DA276075
:100B500004E0B0F5FA6F01DDC4F800A06068002879
:100B600001DA676003E0504501DDC4F804A0606865
:100B70006FF06301A0F6B830484390FBF9F0A06035
:100B8000E168012904D0022905D0032907D016E025
:100B90002DF0A8FA13E020682DF0C8F90FE02069C5
:100BA000401C2061B0F5FA7F09DD134890ED000B81
:100BB00051EC100B2EF0F2FC2DF0C6F927616168A4
:100BC0000320424691FBF6F306FB131391FBF6F16B
:100BD0001354401EF6D561602B4604220349074892
:100BE00003F08FFF012027F00CF998E7EC010020BB
:100BF000240200106C020010F8010020EC04002018
:100C00007CB5054600F044F8044600F03BF8024687
:100C10000020CDE900050748074B006800EB800184
:100C200001EBC00103EB81012346C96D00F07AFCA2
:100C30007CBD000080000020F403001003484068E1
:100C40008068002800D00047704700008000002026
:100C500070B514460D46064600F014F8074905FB2A
:100C60000060096801EB810202EBC101044A02EB5A
:100C70008101C96D41F8204070BD00008000002056
:100C8000F403001001484068806A0047800000209B
:100C900001484068C06A00478000002070B5204CC1
:100CA0001E4800252060092060610120A0611D20F0
:100CB000E0610320206240F20D10606240F24310B8
:100CC000A06240F21710E06240F24710206384F8FF
:100CD000365084F8345004F1E80084F83550082187
:100CE0000160C021016104218161C903416202F0F8
:100CF00019FA6560A560E560256100F059F82046A5
:100D000002F062F80849074848600068804700F030
:100D1000F9F8064800F0E8F8002070BD00680140CE
:100D2000F403001018000010800000208C00001058
:100D300070B58EB000240E4605460094FFF7A2FF62
:100D4000CDE90104FFF7A4FF0996CDE90304FF20D4
:100D5000CDE905048DF830408DF831408DF83240F2
:100D60004FF4C060079007200890FFF78BFF0A90B0
:100D7000FFF78EFF0B902A4669460A4801F07CFF78
:100D8000094905EB450001EB8002631E5360074BE8
:100D900093604FF07F4241F82020024801F096FF17
:100DA0000EB070BDF40300100C0500108C00001094
:100DB00030B5434887B00021026842F0806202608B
:100DC000006800F0806005903D481438026842F4E5
:100DD00000020260026802F400020592026842F01A
:100DE00001020260026802F001020592026842F00C
:100DF00002020260026802F002020592026842F0FA
:100E000004020260026802F004020592026842F0E5
:100E100008020260026802F008020592026842F0CD
:100E200020020260026802F020020592026842F08D
:100E300040020260006800F04000059041F6580052
:100E400000900220CDE9010103900E200490694634
:100E50001C4801F059FA4FF470601B4C0090694631
:100E6000204601F051FA4FF4986000906946174807
:100E700001F04AFA482000906946154801F044FA0A
:100E8000201500906946134801F03EFA4FF40C60BB
:100E9000114D00906946284601F036FA0320009073
:100EA000092004906946204601F02EFA4FF4A05024
:100EB00000906946284601F027FA07B030BD0000CF
:100EC0004438024000000240000402400008024092
:100ED000000C024000140240001802400149086062
:100EE00070470000800000200449054A096801EBB2
:100EF000410102EB81018860704700008000002002
:100F00000C05001070B51B4819490423016000F15D
:100F10003401022207248B60C1E90024C1E90342A5
:100F20004A618A611021C0E90331402141610126F3
:100F30000024C0E901644FF4C071C0E906149102B5
:100F4000C0E9081489008162214600F05BF8094974
:100F50000848343102F0D0FC074D08B12E7000E093
:100F60002C7040F26A5000F009F8287870BD00003B
:100F7000400100A03C0600207A0000102DE9F84F47
:100F80001F4C0025012608270095C4E90067C4E925
:100F9000026582464FF6FF7921464A46A1F150008C
:100FA00002F0E4FC012001F05BF80220C4E9000734
:100FB000C4E9026521464A46A1F1500002F0D6FC80
:100FC00003204FF00408E56084E8810121464A4689
:100FD000A1F1500002F0CAFC4FF40C700090C4E97B
:100FE0000260C4E9008721464A46A1F1500002F0A0
:100FF000BDFC5146A4F15000BDE8F84F02F09FBC83
:101000008C06002030B587B005007DD04D48002407
:10101000016841F00101016000684A4900F00100E7
:1010200008390590086840F480000860086800F4FA
:1010300080000590086840F002000860086800F031
:1010400002000590086840F004000860086800F09D
:1010500004000590086840F008000860086800F087
:1010600008000590086840F010000860086800F06B
:1010700010000590086840F020000860086800F043
:1010800020000590086840F0400008600868694644
:1010900000F0400005900220CDE9024001900C20B4
:1010A000049060200090284801F02EF90120009063
:1010B0006946264801F028F94CF203700090694611
:1010C000234801F021F94FF68370009069462148CA
:1010D00001F01AF94FF63F00009069461E4801F0F2
:1010E00013F948F23310009069461C4801F00CF9DE
:1010F0001B498020C1E901408000C86040000861B0
:1011000080004861800000E01AE0C1E90604C000E8
:10111000C1E908040320C1E90A0412480C6308600D
:10112000296308468D6300F000FF0D4800F02EFF94
:1011300000220F21382001F0C3FF382001F0B2FF58
:1011400007B030BD383802400004024000080240B9
:10115000000C02400010024000140240001802403F
:101160007C050020106402407CB52A4C0546E068EE
:101170000169822088472880002849D0E06801AAB8
:101180006946436982209847BDF804000B21A0F509
:10119000B47080B2ADF80400B0FBF1F020B161880A
:1011A000884201D9491E88B2BDF8001040F6B83215
:1011B000ADF80400914202D8A1F61E7101E0A1F63B
:1011C000D8614942ADF8001089B20F22B1FBF2F1AB
:1011D00021B12288914201D9521E91B2ADF800107E
:1011E00062688BB2934201D98A1A00E0521A93B214
:1011F000A268904201D9821A00E0121A92B21A44EF
:10120000052A01D9C4E90110A08868802089A88036
:101210007CBD00007C00001070B50B4D0B4C01260E
:1012200028806980616882208847A0F500611139B3
:1012300008D1EC600026216882208847E868C168F0
:1012400082208847304670BD7C000010500000109E
:10125000FEE700000649B1F90620B1F9021001FBD2
:1012600000204FF47A7190FBF1F080B270470000DB
:1012700044000020014800F07FBC0000B4020010D0
:10128000F0B50468059E656C46EA034305F04045E9
:101290001D4365640368DA634268B2F5403F02D0DB
:1012A0000068C160F0BD01F47F4201F47F0C8668E4
:1012B00001F07F4301F47F0701F47F45CCB242EA9D
:1012C0000C02BEB1012E16D001F47F02D20CC1F384
:1012D000C401022E11D0032E14D0190F3A0D2D0B7C
:1012E00023092C0144EA022242EA01321A4300682F
:1012F0008263F0BD1A432243F9E7AB0A5B0143EA7C
:10130000C22206E0DB0FEC0A640144EA822242EAD0
:10131000C3320A43EBE7000001681823CAB2103A4F
:10132000B2FBF3F2054B6FF30901032A9B5CC36523
:1013300000D9091D8165084670470000E8FD0208D4
:1013400010B5014600208B698A6A4FF0C07453B112
:10135000B3F5005F15D072B1012A0CD0022A0AD071
:10136000032A09D104E01AB1012A06D0022A03D1C6
:10137000C96AC90100D5012010BDC96AA142FAD0CD
:1013800010BD002AF7D0012AF2D0022AF3D0032A96
:10139000F3D010BD7047A8214843800800BF401E0D
:1013A000FCD2704710B54FF4005000F0A1FFBDE82B
:1013B000104009F013BD72B6FEE7F0B5D1E907356C
:1013C0004C6A0A68C2B102682B4322F4F842144303
:1013D00023430360D1E901231A43D1E903342343B2
:1013E0001A434B6989691A430A4341686FF30E0136
:1013F0000A4342600020F0BDD1E901263243D1E921
:1014000003673E4332434E69896932430A431A43B4
:101410002A43016822436FF30E010A430260E9E7A1
:10142000426943F6FE739A4342EA4101416100205A
:10143000704770B514460546D1E9000210438A682A
:101440006FF01F03C96803EB421242EA41210843CF
:1014500029696FF315010843286101F079F8064600
:1014600009E0601C07D024B101F072F8801BA04293
:1014700001D9032070BDA8698006F2D4002070BD98
:10148000F0B56FF00F058C8A2E014FEA054ECB6840
:101490002F034FF07F4C0EEB04540AB31A03A2F54E
:1014A0008052836822431D4C23401A438260D1E955
:1014B000002305EB0313521E1A438B6806EB03232C
:1014C0001A430B8A097E07EB03431A430CEB0161B5
:1014D0000A43C16801F070410A43C2600020F0BDB8
:1014E000D1E9002E05EB0E15521E2A438D6806EB3E
:1014F00005252A430A4D05EB03331A430B8A097E5F
:1015000007EB03431A4322430CEB01610A43816852
:1015100001F070410A438260E0E70000FF0F0FFF17
:1015200000F0FFFF2DE9F8430E460746DDE90818F5
:10153000124815464FF4403242600022C0E90221B1
:101540000F491C46016000F0A6FB002814D1394663
:101550000A4800F0BFFA00280ED12B463246414619
:101560000648009400F06CFC002805D1BDE8F84363
:101570000A21024800F0DCBBBDE8F8839C0400109F
:1015800000B002407047000078B50024009490F845
:101590003C20012A19D0012280F83C200A68072348
:1015A0000568092A13D9EE680A3A02EB4202934011
:1015B0009E43EE600B788A680A3B03EB43039A4034
:1015C0000368DD682A43DA6010E0022078BD2E69E6
:1015D00002EB420293409E432E610B788A6803EB34
:1015E00043039A4003681D692A431A614A681F230E
:1015F000072A13D205686E6B521E02EB82029340DB
:101600009E436E630A8893B20A79521E02EB8202ED
:1016100093400268556B2B43536327E005680D2AFE
:1016200012D22E6BD21F02EB820293409E432E6396
:101630000B790A88DB1F92B203EB83039A4003689D
:101640001D6B2A431A6311E0EE6A0D3A02EB820227
:1016500093409E43EE620B790A880D3B92B203EBF6
:1016600083039A400368DD6A2A43DA621B4B0568EC
:10167000194A9D420AD10D68122D07D1556825F4EB
:1016800000055560556845F48005556005689D4224
:101690001DD1134D0B68AB4201D0112B17D15368EC
:1016A00023F480035360536843F4000353600968D4
:1016B000A9420CD10B490C4A0968B1FBF2F101EBCC
:1016C0008101490000E0491E00910029FBD180F80A
:1016D0003C40002078BD0000002301400020014074
:1016E000120000101400001040420F0070477047B5
:1016F0000068C06C704770B50446006806684568AD
:1017000016F0020F05F020012AD049B3216CC9065A
:1017100003D4216C41F400712164816811F0405FB1
:1017200017D1217EA9B9C16A11F4700F02D0816866
:1017300049050ED4416821F020014160206C20F45D
:1017400080702064206CC00403D4206C40F0010041
:1017500020642046FFF7CAFF21686FF0120008607E
:1017600016F0040F05F0800132D089B3206CC0065A
:1017700003D4206C40F4005020642068816811F488
:10178000401F1ED1816B11F4401F02D081684905B2
:1017900017D44168490514D4816811F0405F10D115
:1017A000217E71B9416821F080014160206C20F4F4
:1017B00080502064206CC00503D4206C40F00100F0
:1017C00020642046FFF7DEFE21686FF00C00086001
:1017D00016F0010F05F040010FD071B120680068CC
:1017E000C0070AD0206C40F480302064204600F00E
:1017F00043F821686FF00100086016F0200F05F033
:1018000080610ED000290CD0606C40F00200606452
:1018100020686FF0200505602046FFF768FF20680C
:10182000056070BD70B504004FF0000503D0206C5A
:10183000002610B107E0012070BD204600F01EF820
:10184000666484F83C60206CC00610D4206C20F4E0
:10185000885040F0020020642046FFF7C1F866641B
:10186000206C20F0020040F00100206400E001251F
:1018700084F83C60284670BD7047000030B587B0E2
:10188000044614216846FEF76BFF23482468214D67
:101890000022214914380323AC4216D10C6844F4C9
:1018A00080740C60096801F480710591016841F051
:1018B000010101600068694600F0010005902020E8
:1018C000CDE900030292154818E0154DAC421FD136
:1018D0000C6844F400740C60096801F4007105910F
:1018E000016841F0040101600068694600F00400ED
:1018F00005900820CDE9000302920A4800F004FD9B
:1019000000220521122001F0DBFB122001F0CAFBAE
:1019100007B030BD002001404438024000000240C2
:1019200000210140000802402DE9F0410446006812
:101930000D4681684FF0000749050BD58068C0054A
:1019400008D5206C40F02000206484F83C70012011
:10195000BDE8F08100F0FCFD064613E0681C11D0E4
:1019600025B100F0F5FD801BA8420BD92068006866
:10197000800707D4206C40F00400206484F83C7099
:101980000320E5E7206800688007E7D521686FF04D
:1019900012000860206C40F40070206420688168A8
:1019A00011F0405F13D1217E89B9C16A11F4700F23
:1019B00002D0806840050AD4206C20F48070206436
:1019C000206CC00403D4206C40F00100206400208F
:1019D000BEE7000018B50021009190F83C20012AD4
:1019E00007D0012280F83C2002689368DB0702D010
:1019F00011E0022018BD936843F0010393602E4A62
:101A00002E4B1268B2FBF3F202EB420200E0521ED0
:101A10000092002AFBD102689368DB0742D0036C76
:101A200040F20164A34343F48073036453685B058D
:101A300005D5036C23F4005343F480530364036C13
:101A4000DB0404D5436C23F00603436400E04164E7
:101A500080F83C101A496FF022031360496800684F
:101A6000CA06184906D0884224D1816811F0405F27
:101A700013D01FE08842F8D0134A904203D1D1F826
:101A80000423D206F1D0114A904213D1D1F80413A5
:101A900001F01F011029E8D30CE0816841F080417A
:101AA000816007E0016C41F010010164416C41F07C
:101AB00001014164002018BD1400001040420F00D5
:101AC000002301400020014000210140002201408C
:101AD0007047000070B590F83820012A24D0012604
:101AE00080F83860022280F8392000EB0112148C53
:101AF000D369183243EA04451E4C0A2B16D0092B31
:101B000014D0137B45EA03630029016813D0CD6923
:101B1000A5431D43CD6103681168196151680A2905
:101B20001BD0092919D01DE0022070BDD36803F035
:101B30007F432B43E8E74D6AA5431D434D6203688D
:101B40001168996151680A2901D009290AD1D1681F
:101B5000026821F07F41916204E0D168026821F0BF
:101B60007F41116280F83960002180F83810084602
:101B700070BD00000F0003FF2DE9F0470446006828
:101B800046680568F1074FF004084FF000074FF072
:101B9000010914D0E90512D5016821F480710160B2
:101BA000E06B40F00100E0632168C1F8089084F820
:101BB000398084F83870616909B120468847B006D9
:101BC00015D5A80413D52068016821F400510160DF
:101BD000216820208860E06B40F00200E06384F818
:101BE000398084F83870616909B120468847300728
:101BF00015D5280513D52068016821F4006101601E
:101C0000216808208860E06B40F00400E06384F8FD
:101C1000398084F83870616909B1204688477007B7
:101C20000CD568050AD52068016821F4806101603F
:101C30002168C1F80880204600F05AF8B00713D593
:101C4000A80511D52068016821F4007101602168A0
:101C500002208860E06BE06384F8399084F8387083
:101C6000216909B120468847F00612D5E80410D54D
:101C70002068016821F4805101602168102088608B
:101C8000E06BE06384F8399084F838702046FFF701
:101C90001FFFBDE8F08770B5040004D094F8390048
:101CA000002510B106E0012070BD84F838502046B0
:101CB00000F020F8022084F839002068016862688A
:101CC00021F44031114301602068416BA26821F08A
:101CD0000701114341632068016CE2686FF30D0155
:101CE00011430164E563012084F83900002070BDD0
:101CF0007047000008B500680B49884212D10B48B4
:101D0000016841F4000101600068002200F4000055
:101D1000009005215A2001F0D3F9BDE808405A206F
:101D200001F0C0B908BD000000B0024030380240E8
:101D30002DE9F84300260446009600680D46006829
:101D40004FF00407C0074FF0030825D000F000FC57
:101D500081461DE04068009010F0210F0FD00098E0
:101D6000800603D5E06B40F00200E0630098C007F6
:101D700003D0E06B40F00100E063212034E0681CF8
:101D800006D000F0E5FBA0EB0900A8424DD8A5B3B2
:101D9000206841688907DDD52068C169406A01F083
:101DA000200100F02000084335D000F0D1FB81462F
:101DB0002DE04068009010F0290F1FD00098000718
:101DC00003D5E06B40F00400E0630098800603D583
:101DD000E06B40F00200E0630098C00703D0E06BC6
:101DE00040F00100E06329202168886084F83970A0
:101DF00084F838600120BDE8F88316E0681C06D03E
:101E000000F0A6FBA0EB0900A8420ED86DB1206837
:101E10004168C906CDD5216812208860012084F868
:101E2000390084F838600020E5E754F83C0F40F0B2
:101E3000200044F8040984F8018026700320DAE7C2
:101E400038B50446049894F83850012D10D0012577
:101E500084F83850022584F8395000902046FFF766
:101E60000FFA2068016841F001010160002038BDCF
:101E7000022038BD2DE9F0410446876D00F068FB73
:101E8000064694F835000025022806D080206065BB
:101E900084F834500120BDE8F0812068016821F009
:101EA000160101602068416921F080014161206CC8
:101EB00008B9A06C20B12068016821F00801016018
:101EC0002068016821F0010101600CE000F040FB96
:101ED000801B052807D920206065032084F8350081
:101EE00084F83450D7E720680068C007EED194F832
:101EF0005C103F208840B860012084F8350084F8E9
:101F000034500020C7E790F83510022903D0802113
:101F1000416501207047052180F83510006801688F
:101F200021F0010101600020704770B504002BD042
:101F300094F83500022826D02068016821F00101BC
:101F40000160206800250560206845602068856084
:101F50002068C5602068056121682120486120460D
:101F6000FFF7DAF9E56325646564A564E564256532
:101F700094F85C203F2191408160656584F835507C
:101F800084F83450002070BD012070BD2DE9F0416F
:101F9000044600F0DDFA06465CB1022084F8350004
:101FA000002584F834502068016821F001010160A7
:101FB0000DE00120BDE8F08100F0CAFA801B052881
:101FC00005D920206065032084F83500F2E72068F9
:101FD0000068C007F0D12268116820480140D4E9A8
:101FE00001031843D4E903363343184363691843A4
:101FF000A3691843E3691843236A18430843616AD5
:10200000042903D1D4E90B13194308431060206855
:102010004069666A20F0070130460E430127042814
:102020000CD1A06A0643E06A40B12046FFF788F968
:1020300020B14020606584F83570BAE720684661B9
:102040002046FFF769F994F85C203F2191408160B8
:10205000656584F835700020ACE700003F8010F023
:1020600070B5044600F074FA0546601C02D00448BE
:102070000078044400F06CFA401BA042FAD370BD13
:10208000080000102DE9F04186B014216846FEF7E3
:1020900067FB2B48016800294FD14FF00108C0F8B9
:1020A000008028480024016841F0010101600068B7
:1020B000022500F0010005904FF63F00CDE9000534
:1020C00002AA03260C2782E8D00069461E4800F0C9
:1020D0001BF902AA694682E8D000CDE900851B48B9
:1020E00000F012F948F23310CDE9000502AA694662
:1020F00082E8D000164800F007F94FF68370CDE96A
:10210000000502AA694682E8D000124800F0FCF8F7
:102110004CF20370CDE9000502AA694682E8D000BE
:102120000D4800F0F1F86020CDE9000502AA6946EB
:1021300082E8D000094800F0E7F806B0BDE8F08179
:10214000000000103838024000140240000802402D
:102150000018024000100240000C0240000402403F
:102160002DE9F04F0022DFF854B101264FF00F099E
:1021700006FA02F401EA0403A3427DD122F0030728
:102180005F44D7F808C895074FEA157809FA08FAA6
:102190000AEA0C05DFF828C1604502D14FF0000CB7
:1021A00040E0DFF820C1604502D14FF0010C39E07A
:1021B000DFF814C1604502D14FF0020C32E0DFF8C5
:1021C0000CC1604502D14FF0030C2BE0DFF800C1D9
:1021D000604502D14FF0040C24E0DFF8F8C0604500
:1021E00002D14FF0050C1DE0DFF8ECC0604502D1D4
:1021F0004FF0060C16E0DFF8E4C0604502D14FF066
:10220000070C0FE0DFF8D8C0604502D14FF0080C92
:1022100008E0DFF8D0C0604502D14FF0090C01E0C2
:102220004FF00A0C0CFA08FCAC4522D12E4DD5F823
:1022300000C02CEA030CC5F800C005F1040CDCF862
:1022400000509D43CCF80050274D0C35D5F800C008
:102250002CEA030CC5F800C02D1FD5F800C02CEAED
:10226000030CC5F800C0D7F8085825EA0A05C7F8D6
:1022700008580568570000E01AE00323BB409D435F
:102280000560D50800EB8505D5F820C057074FEA53
:10229000D76809FA08F72CEA070CC5F820C0C5680A
:1022A0009D43C5604568A543456084689C43846040
:1022B000521C102AFFF45CAFBDE8F08F00300140E3
:1022C000000002400004024000080240000C0240EE
:1022D000001002400014024000180240001C02409E
:1022E0000020024000240240003C014070470000F2
:1022F000044910B50A68024202D00860FFF7F6FFF1
:1023000010BD0000143C01402DE9F84FDFF8F8A1A2
:102310000022012403254FF00F090AF1040BAAF152
:10232000040E00BF0B6804FA02F63340B34270D1CA
:102330000F7907F00307012F01D0022F16D187680C
:102340004FEA420805FA08FC27EA0C07D1F80CC04E
:102350000CFA08FC4CEA070CC0F808C04768B74301
:102360000E79C6F3001696403E4346600E79F6435A
:10237000B6070AD0C7684FEA420C05FA0CF6B74315
:102380008E6806FA0CF63E43C6600E7906F0030628
:10239000022E10D1D60800EB8608D8F82060570727
:1023A0004FEAD76C09FA0CF7BE430F6907FA0CF72E
:1023B0003743C8F8207006684FEA420C05FA0CF75C
:1023C000BE430F7907F0030707FA0CF7374307609E
:1023D0004E6816F4403F1CD04C4E376847F4804797
:1023E0003760366822F0030706F480460096484EB0
:1023F00007EB060CDCF8086897073F0F09FA07F8A7
:1024000026EA0806DFF80C81404503D14FF00008AA
:1024100041E072E0DFF80081404502D14FF0010851
:1024200039E0DFF8F880404502D14FF0020832E091
:10243000DFF8EC80404502D14FF003082BE0DFF8D5
:10244000E480404502D14FF0040824E0DFF8D88052
:10245000404502D14FF005081DE0DFF8D08040452F
:1024600002D14FF0060816E0DFF8C480404502D1E3
:102470004FF007080FE0DFF8BC80404502D14FF075
:10248000080808E0DFF8B080404502D14FF00908A5
:1024900001E04FF00A0808FA07F848EA0608CCF805
:1024A0000888DAF800605746D1F804C09E435FEA16
:1024B000CC2C00D51E433E60DBF800605F46D1F8AF
:1024C00004C09E435FEA8C2C00D51E433E60DEF8BC
:1024D00000607746D1F804C09E435FEA8C3C00D58B
:1024E0001E433E60084F083F3E68D1F804C09E433B
:1024F0005FEACC3C00D51E433E60521C102AFFF41C
:1025000011AFBDE8F88F0000083C0140443802409C
:102510000030014000000240000402400008024078
:10252000000C02400010024000140240001802405B
:10253000001C0240002002400024024000690840C4
:1025400000D0012070470AB1816170470904FBE7A0
:1025500001488068704700000800001090F83D2096
:10256000202A01D002207047242280F83D200268F2
:10257000136823F0010313600268536A23F0100309
:1025800053620268536A0B43536201680A6842F05F
:1025900001020A60202180F83D100020704790F869
:1025A0003D20202A01D002207047242280F83D20BF
:1025B0000268136823F00103136003685A6A22F06B
:1025C0000F020A4391B2596201680A6842F001029F
:1025D0000A60202180F83D100020704710B50400EB
:1025E00013D0242084F83D002068016821F0010107
:1025F0000160204600F06CFA0020206484F83D0061
:1026000044F8300FA073207310BD012010BD90F866
:102610003D00704770B5040025D094F83D000025BA
:1026200020B984F83C50204600F070FA242084F849
:102630003D002068016821F0010101602068016807
:1026400041F4004101602068016821F4004101600B
:1026500000F04CFF4D4A6168914201D84C4900E0BE
:102660004C49884201D2012070BD4B492368B0FB20
:10267000F1F15E6826F03F060E435E6063689342A8
:1026800006D94FF4967359434FF47A73B1FBF3F1C3
:102690002368491C1E6A26F03F06314319626168AF
:1026A000914210D84900401EB0FBF1F2521CC2F317
:1026B0000B02042A01D2042022E0B0FBF1F0401CFE
:1026C000C0F30B001CE0A268F2B301EBC10303EB03
:1026D0000116431EB3FBF6F35B1C43F480431B055A
:1026E00049D092B301EBC10202EB0111401EB0FBD5
:1026F000F1F0401CC0F30B0040F4804040F4004077
:102700002168CA694CF6FF739A431043C861D4E943
:10271000071001432068026822F0C00211430160E3
:10272000D4E9030101432068826848F2FF339A43E9
:1027300011438160D4E9050108432168CA6822F089
:10274000FF021043C86001E00EE016E02068016857
:1027500041F0010101602564202084F83D002563DB
:1027600084F83E50002070BD01EB4106431EB3FBD0
:10277000F6F35B1CB3E70120C2E701EB4101401E09
:10278000B0FBF1F0401CC0F30B00B7E7A0860100DE
:1027900080841E0000093D0040420F002DE9FF4FDC
:1027A00083B09A46DDE9118793460446DDF84090F0
:1027B000FFF7CEFE054694F83D00202870D119237E
:1027C000012274492046009502F002FB0028F5D151
:1027D00094F83C00012863D0012084F83C00206874
:1027E0000168C90703D1016841F001010160206857
:1027F000016821F400610160222084F83D0040203E
:1028000084F83E0000262664C4F82490A4F82A80A8
:10281000608D20856048E062CDE9007553465A46D8
:102820002046049902F0D6F9002879D1208DD0B144
:10283000012821D00228206824D0416980690090B5
:10284000208D032866D801282BD0544902283B4606
:102850004FF00002009557D08846204602F0B8FAA3
:1028600000285DD13AE020684169816900910168E2
:1028700041F4007101607DE02068016821F480610D
:102880000160F0E7016821F480610160206801685F
:1028900041F400610160206841698069009069E04D
:1028A00075E02A463946204602F038FB88BB54E0E2
:1028B0002068016841F40071016020680069616A64
:1028C0000870606A401C6062218D491E2185618DFF
:1028D000491E618521680969017042E0206801682C
:1028E00021F48061016020680069616A0870606A93
:1028F000401C6062208D401E2085608D401E6085DA
:102900003B46002241460095204602F061FA00B99C
:10291000CEE705E02A463946204602F0FFFA18B114
:10292000012007B0BDE8F08F20680069616A087077
:10293000606A401C6062208D401E81B22185608DDE
:10294000401E608520684269D243520712D4032991
:1029500003D1016821F48061016020680069616A27
:102960000870606A401C6062208D401E2085608D6A
:10297000401E6085208D00287FF462AF202084F8FF
:102980003D0084F83E6084F83C600020C9E70220E6
:10299000C7E70000020010000000FFFF0400010074
:1029A0002DE9FF4F83B09A46DDE91197934604461F
:1029B000DDF84080FFF7CCFD054694F83D00202867
:1029C0007FD11923012240492046009502F000FAE8
:1029D000002876D194F83C00012872D0012084F8B8
:1029E0003C0020680168C90703D1016841F001017A
:1029F00001602068016821F400610160212084F8F1
:102A00003D00402084F83E0000262664C4F824805F
:102A1000A4F82A90608D20852C48E062CDE90075ED
:102A200053465A462046049902F052F970B930E0F4
:102A30002A463946204602F0A9FA58B1206C0428EB
:102A400004D12068016841F400710160012007B0E1
:102A5000BDE8F08F606A216800780861606A401CF8
:102A60006062218D491E89B22185628D521E628568
:102A700022685369DB435B070BD469B100781061AE
:102A8000606A401C6062208D401E2085608D401E63
:102A90006085208D0028CBD12A463946204602F099
:102AA0006BF90028CAD154F83D0B016841F400715C
:102AB0000160202004F81E09E67766770020C6E74B
:102AC000FFE70220C3E70000020010000000FFFF44
:102AD00010B50068094988420FD10948016821F4FE
:102AE0000001016041150748FFF73AFBBDE81040BF
:102AF0004FF480710448FFF733BB10BD005C004009
:102B0000403802400008024000000240F0B587B0A3
:102B1000044614216846FDF723FE1C4920688842BC
:102B200031D11B480024016841F0040101600168B3
:102B300001F004010591016841F0010101600068A4
:102B4000122500F0010005904FF4007001268DE879
:102B500061000427CDE9034769460E48FFF7D4FB1F
:102B600030028DE86100CDE9034769460A48FFF766
:102B7000CBFB07481030016841F400010160006898
:102B800000F40000059007B0F0BD0000005C0040BC
:102B900030380240000802400000024002488168CC
:102BA0000278114481607047080000100B4810B58E
:102BB000016841F400710160016841F480610160C5
:102BC000016841F480710160032000F099FA0F2040
:102BD00000F006F800F04AFA002010BD003C024068
:102BE00030B505461F4887B00024016841F0100148
:102BF0000160006806A900F01000009001A800F034
:102C000055FC0498A8B100F071FC40001649174A21
:102C1000B0FBF1F11648491E026040F2E732C0E90C
:102C20000324C0E90114846101F04AFA040003D0CE
:102C300015E000F05BFCE9E70D4801F083FA0400C1
:102C40000DD1362000F02EFA102D07D20022294691
:102C5000362000F035FA0748056000E0012407B08F
:102C6000204630BD4038024040420F000010004076
:102C7000340500200C0000102DE9F041044690F8C6
:102C8000A00016460F4601281DD0012584F8A0504B
:102C9000022084F8A10006EB860000EBC60004EBDE
:102CA000800034223830FDF7FFFC3246394620469A
:102CB00002F0BCFB2068456284F8A150002084F833
:102CC000A000BDE8F0810220FBE7000090F8A01012
:102CD00001290ED0012100F8A01F02224270064AED
:102CE000136843F48033136041700021017008467B
:102CF00070470220704700001868014070472DE9B6
:102D0000F04104460068856B466B69074FF0040884
:102D10004FF0000715D5710713D5416B21F0040161
:102D200041632168C1F83C80D4F8A41041F001014E
:102D3000C4F8A41084F8A18084F8A0702046FFF79E
:102D4000DDFFA80716D5B00714D52068416B21F028
:102D50000201416321680220C863D4F8A40040F056
:102D60000200C4F8A40084F8A18084F8A070204672
:102D7000FFF7C4FF05EA0600C0074FF001080ED0B8
:102D80002068416B21F0010141632168C1F83C805A
:102D900084F8A18084F8A070204600F08FF82807FE
:102DA00010D530070ED52068416B21F00801416332
:102DB00021680820C86384F8A18084F8A0702046A8
:102DC00000F052F9BDE8F08170B5040004D094F829
:102DD000A100002510B106E0012070BD84F8A050CC
:102DE000204600F06DF8022084F8A1002068816977
:102DF00021F070418161D4E901010843D4E9031253
:102E00001143084321688A691043886121688A68F0
:102E1000294802408A60A18A0A0421688B68A66951
:102E2000334313438B602168CA680240CA60A18B98
:102E30000B042168CA68266A32431A43CA602168B3
:102E40000A6902400A61A18C22680B041169A66A12
:102E500031431943116121684A6902404A61A08DDA
:102E6000010420684269236B1A430A43426194F8C3
:102E700035002168020294F83600CB6A03F07F43E4
:102E8000CB622168CB6A94F8346042EA0040334355
:102E90000343CB622068416B41F006014163206827
:102EA000816941F001018161C4F8A450012084F8D6
:102EB000A100002070BD000000F800F07047000085
:102EC0002DE9F04192B0044614216846FDF748FC14
:102ED000302105A8FDF744FC5B49206888427DD17C
:102EE00008200590C020099004200B90C0030E908C
:102EF00005A800F017F908B1FEF75DFA5348002461
:102F0000016841F080610160006800F0806011900C
:102F10004E481438016841F020010160016801F059
:102F200020011191016841F001010160016801F087
:102F300001011191016841F002010160016801F095
:102F400002011191016841F040010160016801F046
:102F500040011191016841F004010160016801F034
:102F600004011191016841F0080101600068022527
:102F700000F0080011904FF480600090CDE90154FA
:102F80000E26CDE9034669463148FFF7BDF941F603
:102F900058000090CDE90154CDE9034669462D481B
:102FA000FFF7B2F903200090CDE901540927DFF8BB
:102FB000A880CDE9034769464046FFF7A5F94FF4DD
:102FC00070600090CDE90154CDE903466946404662
:102FD000FFF79AF94FF40C60009000E031E0CDE982
:102FE0000154DFF87880CDE9034669464046FFF793
:102FF0008BF94FF498600090CDE90154CDE9034678
:1030000069461748FFF780F948200090CDE9015440
:10301000CDE9034669461348FFF776F94FF4A0500F
:103020000090CDE90154CDE9034769464046FFF7DA
:103030006BF900220521582000F042F8582000F0DA
:1030400031F812B0BDE8F081006801404438024018
:103050000014024000000240000402400018024038
:1030600000080240000C0240704700000C4882B08B
:10307000016841F480410160006800F480400090E4
:103080000748001F016841F080510160006800227C
:1030900000F0805000900F21901E02B000F010B898
:1030A00044380240002809DB00F01F020121914052
:1030B0004009800000F1E020C0F8001170470000D6
:1030C000F0B40E4B1B680C46C3F30223C3F1070593
:1030D000042D00D90425191D072901D2002300E081
:1030E000DB1E012606FA05F1491E214099409E404B
:1030F000761E16403143F0BC03F0FBBC0CED00E043
:10310000064900F0070208684FF6FF03184040EA3E
:103110000220034A10430860704700000CED00E0F5
:103120000000FA052DE9F84F04460068DFF824A2F4
:10313000894F8A4DC1074FF001084FF0000603D1B7
:10314000810701D4400648D5CAF86860FFF700FA45
:10315000814605E0FFF7FCF9A0EB090002287DD8C5
:1031600028680001F6D42078C1077D4805D0616841
:10317000227A890141EA027101602178890711D51B
:1031800001686268237B9201C1F3027142EA036223
:1031900042EA017101603968E26921F01F01521EA3
:1031A000114339602178490608D56168227B89017D
:1031B00041EA0261227A41EA02710160CAF868803C
:1031C000FFF7C6F9814605E0FFF7C2F9A0EB090059
:1031D000022843D828680001F6D52068410701D4A9
:1031E00000074ED5CAF87060FFF7B2F9814605E0D6
:1031F000FFF7AEF9A0EB090002282FD82868C043DA
:103200008000F5D520784107564814D50168226919
:10321000237D9201C1F3027142EA036242EA017125
:1032200001603968226A6FF0FF0321F4F85103EB63
:103230000222114339602178090712D501682269F9
:10324000C1F30361920142EA0161227E41EA027107
:1032500001603868616A20F4403000E051E00843C2
:103260003860CAF87080FFF773F9074605E000BFC1
:10327000FFF76EF9C01B022843D82868C0438000BE
:10328000F6D42078800653D534484030016841F0A8
:10329000805101600068344D00F080500090286833
:1032A00040F480702860FFF753F9074605E000BF3F
:1032B000FFF74EF9C01B022823D82868C005F7D5B0
:1032C000274D143D286810F4407020D0218D01F462
:1032D000407181421BD0286820F440712348C0F817
:1032E0000080066029602868C00710D0FFF730F919
:1032F000064641F2883707E0FFF72AF9801BB842FB
:1033000002D90320BDE8F88F28688007F4D5A16AA8
:103310001248C1F301220830032A13D0016821F4B6
:10332000F81101602868218DC1F30B010843286062
:103330002078C00604D50E4994F82C00C1F8E001AD
:103340000020DFE702680B4B22F4F81219400A4311
:103350000260E7E7000047428C3802400038024034
:10336000843802408838024000700040400E4742D6
:1033700000104742FFFCFF0F2DE9F0470E46050005
:1033800065D0DFF81481D8F80000F7B200F00F0024
:10339000B04207D288F80070D8F8000000F00F00A3
:1033A000B04254D128683D4C810712D5400703D55F
:1033B000206840F4E05020602878000703D520689A
:1033C00040F4604020602068A96820F0F0000843C5
:1033D00020602878C0072DD0304968680839012856
:1033E00012D0022813D0032811D0096889070029B8
:1033F0002DDA216821F0030101432160FFF7A8F8CD
:10340000814641F2883A0EE009688903EFE70968CE
:103410008901ECE7FFF79CF8A0EB0901514502D9BF
:103420000320BDE8F0872068696800F00C00B0EB6D
:10343000810FEFD1D8F80010404601F00F01B142E2
:1034400007D90770006800F00F00B04201D00120DA
:10345000E7E72878400705D52068E96820F4E050C0
:10346000084320602878000706D52068296920F4E1
:10347000604040EAC100206000F058F82168084A26
:10348000C1F30311515CC840064908600648006852
:10349000FFF7A6FB0020C4E7003C024008380240CA
:1034A000F0FD0208140000100C0000100F22026052
:1034B0000C4A136803F003034360136803F0F0033E
:1034C0008360136803F4E053C36012684FF4E05361
:1034D00003EAD20202610448006800F00F000860AD
:1034E0007047000008380240003C0240044805498B
:1034F00000680968044AC1F38221515CC8407047E2
:10350000140000100838024000FE02080448054973
:1035100000680968044AC1F34231515CC8407047F1
:10352000140000100838024000FE0208154810B5CB
:10353000006810F00C02144813D04110042A0FD078
:10354000082A0ED10F4C241F2268236802F03F0284
:103550005B0207D52068C0F38810A0FB010106E0DC
:10356000084610BD2168C1F38811A1FB00010023AA
:10357000FCF710FF2168C1F30141491C4900B0FB71
:10358000F1F010BD083802400024F4002DE9F84F96
:1035900004006ED02078DFF84C93C007A9F1040531
:1035A0004AD009F104000168C1F38101012908D062
:1035B0000068C0F3810002280AD1D9F80000400257
:1035C00006D52868800337D560680028E1D033E04D
:1035D0006068B0F5803F10D0B0F5A02F286810D0FB
:1035E00020F480302860286820F4802028606068FB
:1035F000A8B1FEF7ADFF06460DE0286840F4803024
:10360000F4E740F480202860F7E700BFFEF7A0FF52
:10361000801B642873D828688003F7D50CE0FEF778
:1036200097FF064605E000BFFEF792FF801B642867
:10363000F0D828688003F7D42078DFF8AC828007C0
:103640004FF0000A3ED5A748001D016811F00C0F8D
:1036500008D00068C0F3810002280BD1D9F800001F
:10366000400207D42868800716D5E068012800D1F9
:1036700012E033E1E068B8B10120C8F80000FEF7BD
:1036800067FF064605E000BFFEF762FF801B0228C9
:10369000C0D828688007F7D52868216920F0F8008D
:1036A00040EAC10028600DE0C8F800A0FEF750FF16
:1036B000064604E0FEF74CFF801B02281FD828684E
:1036C0008007F7D42078000722D5864F87486169A4
:1036D000703771B101210160FEF73AFF064604E040
:1036E000FEF736FF801B022809D838688007F7D517
:1036F0000EE0C0F800A0FEF72BFF064605E082E0D2
:10370000FEF726FF801B02287DD838688007F7D493
:103710002078400768D5DFF8CCB100270BF13C0BCF
:10372000DBF80000C0000BD4DBF8001041F0805142
:10373000CBF80010DBF80000012700F0805000906B
:103740006B4E3068C00510D4306840F48070306033
:10375000FEF7FEFE009005E0FEF7FAFE0099401A23
:10376000022850D83068C005F6D55E4EA0686C3689
:1037700001280FD00528306810D020F001003060FB
:10378000306820F004003060A068B8B1FEF7E0FEB9
:1037900000900FE0306840F00100F4E740F00400D2
:1037A0003060F7E7FEF7D4FE0099411A41F2883005
:1037B000814266D830688007F4D50EE0FEF7C8FE77
:1037C000009007E0FEF7C4FE0099411A41F28830EC
:1037D000814256D830688007F4D42FB1DBF800104E
:1037E00021F08051CBF80010A069C8B33D49091DF4
:1037F0000968C1F3810102294AD00228504607D046
:10380000C8F8600000E03CE0FEF7A2FE04463BE0A2
:103810004746C8F86000FEF79BFE064605E000BF7D
:10382000FEF796FE801B02282BD828688001F7D46B
:10383000D4E907010843A16A2E4A490802EB014175
:10384000626A41EA8211084394F82C1040EA01614F
:10385000C9F8001001203866FEF77AFE044606E03B
:103860003EE000BFFEF774FE001B022809D828685E
:103870008001F7D534E000BFFEF76AFE001B022886
:1038800002D90320BDE8F88F28688001F4D427E02E
:103890000128F7D0D9F80000E26900F480019142D4
:1038A0001CD1226A00F03F01914217D147F6C07146
:1038B000626A0140B1EB821F10D1A26A4FF0FF3360
:1038C00000F4403103EB5202B1EB024F06D194F801
:1038D0002C1000F07060B0EB016F01D00120D1E737
:1038E0000020CFE70438024000004742800E4742E4
:1038F000007000400000FFFF70B50D46040003D0CB
:1039000094F82C0010B107E0012070BD002084F86D
:103910002D00204600F011F8022084F82C00211D13
:103920002068FDF74AFDD4E900022946FDF7A8FD0D
:10393000012084F82C00002070BDFEF7A3BB10B559
:10394000044690F82C00022804D094F82C0001289A
:1039500001D0012010BD022084F82C002068FDF762
:103960005FFD012084F82C00002010BD70B50446D6
:1039700090F82C000D46022804D0012803D0052819
:1039800001D0012070BD022084F82C002068FDF7D2
:1039900050FD2868022805D05FF0010084F82C0053
:1039A000002070BD0520F9E710B5040011D00220F9
:1039B00084F851002068016821F040010160204630
:1039C00000F06AF80020606584F8510084F8500027
:1039D00010BD012010BD90F85100704770B5040073
:1039E00009D0606A002540B125616561A56294F83F
:1039F000510040B10CE0012070BD6068B0F5827FDD
:103A0000F4D0E561F2E784F85050204600F05AF80F
:103A1000022084F851002068016821F04001016013
:103A2000A088218900F4827001F404410843A1892F
:103A300001F400610843217C01F002010843217D6B
:103A400001F001010843218B01F400710843217F3B
:103A500001F03801084394F8201001F08001084378
:103A6000218D01F40051084321680860A0690421F8
:103A700001EA104094F8241001F010010843216875
:103A800048602068C16921F40061C1616565012059
:103A900084F85100002070BD00680749884209D1B0
:103AA0000648016821F4801101604FF460710448F8
:103AB000FEF756BB704700000050014044380240FA
:103AC0000014024010B586B0044614216846FCF785
:103AD00047FE13492068884220D11248002102681D
:103AE00042F480120260006800F4801005900D48D6
:103AF0001438026842F020020260006800F02000E2
:103B000005904FF4607000900220CDE9010105207E
:103B1000CDE9031069460448FEF7F6FB06B010BD78
:103B20000050014044380240001402402DE9F84F93
:103B3000044690F851001D4616460F46012838D11C
:103B400060684FF00408B0F5827F01D1A06830B3FF
:103B5000FEF7FEFC8246002F75D0002E73D094F83D
:103B60005000012825D04FF0010984F8509084F8C6
:103B700051804FF00008C4F85480A763A687E687F9
:103B8000C4F83080A4F83480A4F83680C4F84080AB
:103B9000C4F84480A068B0F5004F0CD015E084F85C
:103BA0005180009313460A46204600F01CF9BDE8F8
:103BB000F88F0220FBE72068016821F040010160D6
:103BC0002068016821F4804101602068016849068D
:103BD00003D4016841F040010160E068C0B134E005
:103BE00020688168C90709D0007BA16B0870A06BB1
:103BF000401CA063E08F401EE08709E0FEF7A8FCB0
:103C0000A0EB0A00A84202D3681C01D032E085B3C1
:103C1000E08F0028E4D11BE020688168C90709D043
:103C2000C068A16B0880A06B801CA063E08F401E61
:103C3000E0870AE0FEF78CFCA0EB0A00A84203D361
:103C4000681C02D016E012E09DB1E08F0028E3D19D
:103C500052462946204602F002FA08B1202060654B
:103C600084F8519084F85080606D00289FD0012026
:103C70009DE7FFE784F8519084F85080032096E791
:103C80002DE9F84F984616468A460446FEF760FC32
:103C9000814694F8510001281ED1BAF1000F73D06B
:103CA000002E71D094F85000012815D0012784F817
:103CB0005070032084F8510000256565C4F830A0D9
:103CC000A686E686A563A587E58765642564A06862
:103CD000B0F5004F03D00CE00220BDE8F88F20685B
:103CE000016821F0400101602068016841F48041D1
:103CF000016020680168490603D4016841F0400171
:103D00000160E068B0F5006F606803D048B3012E31
:103D100027D047E008B1012E1FD1206B2168008811
:103D2000C86006E020688168890709D5216B098889
:103D3000C160206B801C2063E08E401EE0860CE09A
:103D4000FEF706FCA0EB0901414503D3B8F1FF3FA4
:103D500003D035E0B8F1000F32D0E08E0028E1D179
:103D600023E0206B21680078087306E020688168F2
:103D700089070AD5216B09780173206B401C2063E9
:103D8000E08E401EE0860DE02BE0FEF7E1FBA0EBAD
:103D90000901414503D3B8F1FF3F03D010E0B8F16A
:103DA000000F0DD0E08E0028E0D14A464146204663
:103DB00002F084F908B120206065A06830B109E004
:103DC00084F8517084F85050032086E72068C16859
:103DD0008068009084F8517004F8505F6068002893
:103DE000F3D0012079E72DE9FF4F81B01D469346BE
:103DF00004464FF001090E9EFEF7AAFB074694F811
:103E000051006168012806D0B1F5827F3CD1A168DC
:103E1000C9BB042838D10298002871D0BBF1000F2B
:103E2000FBD0002DF9D094F8500001282CD04FF091
:103E3000010A84F850A094F85100042802D005200B
:103E400084F851004FF00008C4F85480C4F838B02A
:103E5000E587A58702992163E586A586C4F8408099
:103E6000C4F8448020680168490603D4016841F021
:103E700040010160E068B0F5006F606808D0F0B301
:103E8000012D49D081E0FFE7022005B0BDE8F08FA9
:103E900008B1012D39D1206B21680088C860206BE2
:103EA000801C2063E08E401EE0862EE02068816842
:103EB00089070FD5E18E69B1B9F1010F0AD1216BE4
:103EC0000988C160206B801C2063E08E401EE08664
:103ED0004FF0000920688168C9070CD0E18F51B10B
:103EE000C068A16B0880A06B801CA063E08F401E9F
:103EF000E0874FF00109FEF72BFBC01B01E00BE050
:103F000067E0B04201D3701C50D1E08E0028CDD1C3
:103F1000E08F0028CAD13EE0206B2168007808734A
:103F2000206B401C2063E08E401EE0862DE0206860
:103F3000816889070FD5E18E69B1B9F1010F0AD106
:103F4000216B09780173206B401C2063E08E401EBA
:103F5000E0864FF0000920688168C9070CD0E18F26
:103F600051B1C068A16B0870A06B401CA063E08FCA
:103F7000401EE0874FF00109FEF7EAFAC01BB0428D
:103F800002D3701C01D011E086B1E08E0028CED1A2
:103F9000E08F0028CBD13A463146204602F08EF819
:103FA00050B12020606584F8508012E084F851A060
:103FB00084F85080032068E7A06818B92068C168B9
:103FC0008068009084F851A084F85080606D0028CB
:103FD000F1D0012059E77047704710B590F83C20A8
:103FE000012A22D0012280F83C20CA688C6822F481
:103FF000407222434C6822F4806222430C6822F40F
:10400000006222430C6922F4805222434C6922F45C
:1040100000522243C969002322F480420A43016806
:104020004A6480F83C30002010BD022010BD000022
:1040300070B590F83C20012A32D0012480F83C4031
:10404000022280F83D2003685A689D6822F07006BD
:104050000A6832435A60134B02689A4214D0B2F194
:10406000804F11D0104B9A420ED0104B9A420BD079
:104070000F4B9A4208D00F4B9A4205D00E4B9A42F2
:1040800002D00E4B9A4204D1496825F080031943AF
:10409000916080F83D40002180F83C10084670BDDA
:1040A000022070BD000001400004004000080040F4
:1040B000000C004000040140004001400018004096
:1040C00010B5040003D094F83D0010B107E00120C2
:1040D00010BD002084F83C00204600F01FF80220AC
:1040E00084F83D00211D206802F04AF9012084F87F
:1040F000460084F83E0084F83F0084F8400084F8CD
:10410000410084F8420084F8430084F8440084F8B5
:10411000450084F83D00002010BD000008B500688F
:104120000649884208D10648016841F00201016051
:10413000006800F00200009008BD0000000400408C
:104140004038024090F83D10012901D0012070470D
:10415000022180F83D100168CA6842F00102CA607D
:1041600000681149884214D0B0F1804F11D00F4936
:1041700088420ED00E4988420BD00E49884208D0A2
:104180000D49884205D00D49884202D00C49884229
:1041900004D1816801F00701062903D0016841F0CC
:1041A0000101016000207047000001400004004050
:1041B00000080040000C00400004014000400140A5
:1041C0000018004070B5044690F83C000025012816
:1041D00017D0012684F83C60022084F83D00206856
:1041E000826822F0770222F47F42826008685028B9
:1041F00038D00DDC20284FD005DC90B3102811D129
:104200004AE0022070BD302846D040280AD13BE069
:1042100060282FD070280DD0B0F5805F03D0B0F5A6
:10422000005F12D0012584F83D60002084F83C0036
:10423000284670BDCB68D1E90121206802F019F948
:104240002068816841F0770109E0CB68D1E901215C
:10425000206802F00EF92068816841F48041816095
:10426000E1E719E0CA684968206802F0D7F95021EF
:10427000206806E0CA684968206802F0E0F9602119
:10428000206802F000F9CEE7CA684968206802F0A9
:10429000C5F940212068F4E7226801461046F0E79E
:1042A00070472DE9F04104460068C66805694FF083
:1042B0000007A90713D5B10711D5F91E0161012027
:1042C0002077206880698007204602D0FFF7E8FF4A
:1042D00004E000F0FBF8204600F0E8F927776807D3
:1042E00016D5700714D521686FF00400086102200C
:1042F00020772068806910F4407F204602D0FFF7C5
:10430000CFFF04E000F0E2F8204600F0CFF9277775
:10431000280715D5300713D521686FF0080008610C
:10432000042020772068C0698007204602D0FFF76C
:10433000B7FF04E000F0CAF8204600F0B7F927778D
:10434000E80616D5F00614D521686FF01000086154
:10435000082020772068C06910F4407F204602D0F2
:10436000FFF79EFF04E000F0B1F8204600F09EF950
:104370002777E80708D0F00706D021686FF0010022
:104380000861204600F0F8F9280608D5300606D561
:1043900021686FF0800008612046FFF71CFE680668
:1043A00008D5700606D521686FF0400008612046E8
:1043B00000F0ECF9A8060AD5B00608D521686FF020
:1043C000200008612046BDE8F041FFF705BEBDE8CA
:1043D000F081000030B587B0044614216846FCF730
:1043E000BFF924680022314902233148B4F1804FDB
:1043F0000CD0304DAC421DD10C6844F002040C606E
:10440000096801F00201059110211FE00C6844F0D9
:1044100002040C60096801F0020105910821009175
:10442000CDE901320121CDE903216946FDF76CFF99
:1044300007B030BD204DAC420FD10C6844F00204EF
:104440000C60096801F00201059180210091CDE91D
:1044500001326946CDE90323E8E7184D0320AC4259
:1044600010D10C6844F004040C60096801F00401E8
:104470000591A9150091CDE90132CDE903206946E6
:104480000F48D3E70F4DAC42D2D10C6844F0100472
:104490000C60096801F01001059120210091CDE91F
:1044A0000132CDE9032069460748BFE730380240B2
:1044B00000040240000400400008004000040140E5
:1044C000000802400040014000100240704770B5F3
:1044D000044690F83C0000260D4601280FD001202C
:1044E00084F83C006AB1042A1DD0082A2FD00C2A77
:1044F0003FD00126002084F83C00304670BD0220E9
:1045000070BD206801F0C8FF2068816941F0080192
:1045100081612068816921F00401816120688169DD
:104520002A69114311E0206801F0E6FF20688169E3
:1045300041F4006181612068816921F480618161B9
:10454000206881692A6941EA02218161D2E72068F5
:1045500002F008F82068C16941F00801C1612068D3
:10456000C16921F00401C1612068C1692A69114350
:1045700011E0206802F02AF82068C16941F4006166
:10458000C1612068C16921F48061C1612068C1698D
:104590002A6941EA0221C161ACE710B5040003D0E9
:1045A00094F83D0010B107E0012010BD002084F810
:1045B0003C00204600F01EF8022084F83D00211D3A
:1045C000206801F0DDFE012084F8460084F83E00FA
:1045D00084F83F0084F8400084F8410084F84200E9
:1045E00084F8430084F8440084F8450084F83D00D2
:1045F000002010BD10B586B0044614216846FCF7B3
:10460000AFF8216800222448B1F1804F0CD0234B31
:10461000994211D1016841F004010160006800F085
:104620000400059006B010BD016841F00101016071
:10463000006800F00100F4E71748194B001D99428B
:1046400007D1016841F002010160006800F002003A
:10465000E7E7144B9942E5D1016841F480310160EC
:10466000006800F4803005900B481038016841F074
:10467000100101600068694600F0100005904020BC
:1046800000900220CDE901020320CDE90320064875
:10469000FDF73AFEC6E7000040380240000800403F
:1046A000000401400040014000100240704700003B
:1046B00010B50446022249B104290ED0082913D0AE
:1046C00094F84100012816D0012010BD94F83E0056
:1046D0000128F9D184F83E200FE094F83F0001282A
:1046E000F2D184F83F2008E094F840000128EBD193
:1046F00084F8402001E084F841200122206801F084
:10470000ABFE16492068164A884201D0904203D178
:10471000436C43F4004343642068884213D0B0F1F3
:10472000804F10D00F4988420DD00F4988420AD0DF
:104730000E49884207D0904205D00D49884202D0E8
:104740000C49884204D1816801F00701062903D091
:10475000016841F001010160002010BD000001402E
:10476000000401400004004000080040000C00402C
:10477000004001400018004000680349884201D110
:10478000FEF70CBA704700000010004070477047F9
:1047900070470000F8B5016804460868CA684B69AC
:1047A00010F00F0F4FF0000559D003F0010602F48E
:1047B0009077374365D0C10705D0D10503D5616C2B
:1047C00041F001016164410705D5D90703D0616C4F
:1047D00041F002016164810705D5D90703D0616CFE
:1047E00041F004016164010707D502F02001314363
:1047F00003D0616C41F008016164616C00293AD01A
:10480000800604D5900602D5204601F065FF206899
:104810004069616CC0F38010090700D460B3204682
:1048200001F033FF20684069400621D5206814302C
:1048300050E8001F21F0400140E80012002AF5D1A5
:10484000E06BA8B16E490165E06BFDF75CFB0028E9
:1048500011D0E06B016D01B0BDE8F0400847830660
:104860000FD593060DD52046BDE8F84001F034BFC2
:104870002046FFF78DFFF8BD2046FFF789FF6564EE
:10488000F8BD266B2023012E7DD1C6067BD5D6062A
:1048900079D508684868009048694FF002064006DC
:1048A00041D5E16B086840680004000CE8D0A28D97
:1048B0008242E5D9E085C869B0F5807F2DD02068B7
:1048C0000C3050E8001F21F4807140E80012002AEB
:1048D000F5D12068143050E8001F21F0010140E8B4
:1048E0000012002AF5D12068143050E8001F21F092
:1048F000400140E80012002AF5D184F842302563D7
:1049000020680C3050E8001F21F0100140E8001230
:10491000002AF5D1E06BFDF7ADFA6663A08DE18D5D
:10492000401A81B22AE0A08DE18D401A81B2E08D5B
:104930000028A5D00029A3D022680C3252E8000F2D
:1049400020F4907042E80007002FF5D12068143061
:1049500050E8002F22F0010240E80027002FF5D197
:1049600084F84230256320680C3050E8002F22F094
:10497000100240E80023002BF5D166632046FFF7C4
:1049800006FFF8BDFFE705062BD5150629D594F8D7
:1049900041002128F5D1A068B0F5805F01D12069E0
:1049A000B0B1206A411C2162216800784860E08C27
:1049B000401E0004000CE084E3D12068C16821F0AF
:1049C0008001C1602068C16841F04001C160D8E742
:1049D000206A0088C0F308004860206A801C2062BA
:1049E000E5E74006CDD55006CBD5CA68204622F073
:1049F0004002CA6084F8413000F0D3F8C1E70000FB
:104A00007B66000870B5040004D094F841000025CE
:104A100010B106E0012070BD84F84050204600F03F
:104A200023F8242084F841002068C16821F4005153
:104A3000C160204601F0B2FE2068016921F4904176
:104A400001612068416921F02A0141612068C16843
:104A500041F40051C1606564202084F8410084F86D
:104A600042006563002070BD10B586B00446142175
:104A70006846FBF775FE18492068884229D1174817
:104A80000021026842F010020260006800F010008D
:104A9000059012481438026842F001020260006872
:104AA00000F0010005904FF4C06000900220CDE9B5
:104AB0000101032003900720049069460848FDF790
:104AC00023FC002205212520FEF7FAFA2520FEF717
:104AD000E9FA06B010BD0000001001404438024061
:104AE0000000024090F84230202B01D00220704795
:104AF00021B11AB10023036301F0D6BE0120704733
:104B000070472DE9F843044690F841009846164650
:104B10000D46202802D00220BDE8F88385B17EB181
:104B200000206064212084F84100FDF711FDA68477
:104B30008146E684A0682027B0F5805F02D003E0BC
:104B40000120E9E7206910B12E4600250EE000267D
:104B50000CE08021204601F0C2FEA8B9C6B116F8CB
:104B6000010B21684860E08C401EE084E08C4B46DD
:104B70004FF00002CDF800800028EAD14FF040014C
:104B8000204601F0ACFE40B184F841700320C3E739
:104B900035F8020BC0F30800E3E784F84170002009
:104BA000BAE77047FEE701684A69D24352050FD45D
:104BB0006FF480624A61002140F8301F2022427366
:104BC0008173026942F0040202610173012070479F
:104BD000002070472DE9F84F0446006889460B9D78
:104BE00001689846174641F48061016020680168B9
:104BF00041F48071016000954FF0011B002259467D
:104C000020460A9B00F0E4F84FF4007A40B1206897
:104C10000068C00501D5C4F840A00320BDE8F88FA6
:104C2000216809F0FE0008612B46284920460A9AAF
:104C300000F016F9F0BB20684169806900902A46AF
:104C400020460A9900F0A2F940B1206C04283AD11C
:104C50002068016841F40071016034E0FEB2B8F1EF
:104C6000010F09D02168380A08612A4620460A99AE
:104C700000F08CF90028E8D1206806612A46204619
:104C80000A9900F083F90028DFD12068016841F417
:104C90008071016000950022594620460A9B00F071
:104CA00097F80028B3D1216809F0FF0040F0010017
:104CB000086100E007E02B46044920460A9A00F00C
:104CC000CFF80028AAD00120A8E7000002000100C8
:104CD0002DE9F843044600680D46DDE908970168B0
:104CE0009846164641F4807101604B4600224FF011
:104CF00001112046009700F06BF848B12068006869
:104D0000C00502D54FF4007020640320BDE8F8838D
:104D1000216805F0FE0008613B464A4615492046D9
:104D200000F09EF888B920684169806900903A4691
:104D30004946204600F02AF948B1206C042804D1E5
:104D40002068016841F4007101600120DEE7F5B2DE
:104D5000B8F1010F09D02168300A08613A46494686
:104D6000204600F013F90028E7D1206805610020F3
:104D7000CCE700000200010070B516460D4604465F
:104D80001EE02046FFF70FFF08B1012070BD681C30
:104D900016D0FDF7DDFB801BA84200D885B920683E
:104DA0004069C04340070BD5002044F8300F202154
:104DB0006173A073216941F0200121612073E4E750
:104DC00020684069C0434007DBD4002070BD00006C
:104DD0002DE9F047984617460D460446C1F30746AD
:104DE000DDF820902AE000BFB8F1FF3F26D0FDF7A4
:104DF000AFFBA0EB0901414502D8B8F1000F1DD16E
:104E00002068012E16D0806925EA00000004000CFD
:104E100012D00020B84211D1002044F8300F2021D8
:104E20006173A073216941F0200121612073012089
:104E3000BDE8F0874069E7E70120EBE72068012E35
:104E40000AD0806925EA00000004000C06D000208A
:104E5000B842C9D00020EBE74069F3E70120F7E74B
:104E60002DE9F047984616460D4604464FF00009D6
:104E70004FF0200AC1F3074723E020684069C04390
:104E8000400515D42068016841F400710160216873
:104E90006FF480604861C4F8309084F83DA084F8D5
:104EA0003E90216C41F00401216484F83C9021E0A3
:104EB000701C06D0FDF74CFBA0EB0800B04203D8F5
:104EC00016B1012F1FD021E02068012F15D0806975
:104ED00025EA00000004000C18D000BF44F8309F01
:104EE00084F80DA084F80E90216941F02001216121
:104EF00084F80C900120BDE8F087406925EA0000A5
:104F00000004000CEAD12068406901E02068806953
:104F100025EA00000004000CAFD1ECE72DE9F041D8
:104F2000002590460E460446202728E04069C043ED
:104F3000C0060CD454F8301B6FF01000486144F8E0
:104F400010596777A577206A2062257714E0FDF76E
:104F5000FFFAA0EB0800B04200D886B9206840698B
:104F6000C04340060BD544F8305F6773A5732069D2
:104F700040F02000206125730120BDE8F081206809
:104F80004169C9434906D1D40020F6E770B51646F9
:104F90000D4604461EE02046FFF705FE08B101203D
:104FA00070BD681C16D0FDF7D3FA801BA84200D84C
:104FB00085B920684069C04300060BD5002044F83D
:104FC000300F20216173A073216941F0200121611C
:104FD0002073E4E720684069C0430006DBD400206A
:104FE00070BD000010B50348FDF7F8FABDE81040A9
:104FF00000F002B84803001010B50E48FDF707FB9B
:10500000002815D10B480C494FF4804201600B4930
:10501000416000218160C0E9031241618161C16189
:10502000016200F00DF8BDE810400248FDF7F2BA49
:1050300010BD000048030010005C0040A086010085
:1050400000B50068284987B088424AD12748002126
:10505000026842F004020260026802F00402059253
:10506000026842F001020260006800F00100059051
:105070004FF4807000901220CDE9010102200390CE
:105080000420049069461A48FDF73EF94FF4007079
:10509000009069461748FDF737F914481030016849
:1050A00041F400010160006800F4000005900F4821
:1050B0001038016841F400010160016821F4000129
:1050C000016000220F214820FDF7FAFF4820FDF77C
:1050D000E9FF00220F214920FDF7F2FF4920FDF7EB
:1050E000E1FF07B000BD0000005C00403038024026
:1050F0000000024000080240FCF7B2BF114800B5B2
:10510000026887B0002142F001020260006800F0EE
:10511000010005904FF4004000900120CDE902010C
:105120004FF40410019069460748FDF7EDF800229E
:105130000F212820FDF7C4FF2820FDF7B3FF07B09B
:1051400000BD00003038024000000240FFF754BFAD
:105150001FB50A4601460020084C8DF80C000123BB
:10516000A46803A88DE819000548FDF717FB08B1EE
:10517000FFF738FF9DF80C0004B010BD6800002058
:10518000480300103EB514460A46014607488068A9
:105190000094CDE9013001230548FDF7FFFA00280E
:1051A00002D0FFF71FFF01203EBD00006800002075
:1051B000480300101FB51346084C0A468DF80C3002
:1051C0000146A468012303A88DE819000448FDF7EF
:1051D000E7FB002801D0FFF705FF1FBD6800002096
:1051E00048030010FBF75AFD21490020FBF7A0FD02
:1051F0000020FBF773FEFBF721FD4FF0FF30FBF7BC
:10520000FFFC4FF4A071F020FCF706F804221949C6
:105210001948FFF767FC00211848FFF749FA0821F1
:105220001748FFF745FA04211648FFF741FA002115
:105230001548FFF73DFA04211448FFF739FA00F04A
:105240003AFA00F035FA1249087018F01DFF1FF005
:105250003BF81FF05BF80F4825F012FF0D480CF0EB
:10526000AEFF00BF21F06AFC012022F0CAFDF9E781
:10527000000013D0D4010020EC040020A40400207E
:105280005C04002084030020CC03002014040020D0
:10529000220200105C320220FCF7E2BE2DE9F04150
:1052A000244886B00178002940D1234C012505709F
:1052B0002068002640F0080020602068022700F0E7
:1052C0000800059068038DE8E100DFF8708069460A
:1052D0004046FDF719F8206840F00800206020687B
:1052E000694600F008000590A0148DE8E1004046F2
:1052F000FDF70AF8206840F0040020602068104C98
:1053000000F00400059004208DE8E1006946204685
:10531000FCF7FAFF002204212046FDF714F90122D0
:1053200004212046FDF70FF900F064FF06B0BDE848
:10533000F08100006800002030380240000C02407C
:10534000000802402DE9F843154D0C46074600229F
:1053500004212846FDF7F7F8DFF848804FF400569F
:10536000002231464046FDF7EEF8384600F090FF47
:105370000D4822466946C3680C48FEF7D7FB08B1C2
:1053800000F02EFF012231464046009CFDF7DBF87D
:10539000012204212846FDF7D6F82046BDE8F8830F
:1053A00000080240000C0240680000209C0300102E
:1053B00070B50546012251030948FDF7C4F8094CB0
:1053C000002204212046FDF7BEF8284600F060FFC9
:1053D0002046BDE8704001220421FDF7B4B800006A
:1053E000000C02400008024070B5054600224FF450
:1053F00000510948FDF7A7F8084C00220421204677
:10540000FDF7A1F8284600F043FF2046BDE87040B4
:1054100001220421FDF797B8000C02400008024069
:105420000148FDF76CBC000084020020F0B5036861
:105430008C88DD68C5F30B452C442504882404EBD7
:10544000C2141E5906F470461E5103680F68DE68C8
:10545000C6F30B46761C3E442E431E5104688B89CE
:10546000E568C5F30A052B441D048C2303EBC21326
:10547000E65806F47046E65004688F68E668C6F39E
:105480000A06761C3E442E43E6509423046803EB40
:10549000C213E55825F00705E55005680C69EC5086
:1054A00091F831300C7E1F0226069C24056804EB1F
:1054B000C21491F8323055F804C04FF0000C45F892
:1054C00004C091F8305046EA03433D431D4303684E
:1054D0001D519823046803EBC213E55825F0FF051E
:1054E000E55005684C69EC50A023046803EBC21337
:1054F000E55840F20776B543E550D1E907452C431E
:105500000568EC50AC23046803EBC213E55844F87B
:1055100003C005684C6AEC500B698BB3012B32D089
:10552000042B32D0022B30D0032B2ED0072B2CD0C3
:105530000123B024056804EBC2142E5906F0E026BE
:105540002E51D1E90065AD1B0E8D5D435E43ED1C10
:1055500045EA064305682B51B423046803EBC213E4
:10556000E5586FF30A05E5500468C96AE150006820
:10557000842101EBC211425842F001024250F0BDB9
:10558000FFE70423D5E70323D3E70223D1E7000095
:105590002DE9F0470746DDE908891C4615460E4609
:1055A0003B2000F0A3F882463C2000F09FF840EA40
:1055B0000A2038803D2000F099F882463E2000F015
:1055C00095F840EA0A2030803F2000F08FF88246AC
:1055D000402000F08BF840EA0A202880432000F0A9
:1055E00085F88246442000F081F840EA0A202080B5
:1055F000452000F07BF88246462000F077F840EA2C
:105600000A20A8F80000472000F070F882464820E1
:1056100000F06CF840EA0A20A9F80000B7F9000091
:1056200000EE100A2048F8EEC00A9FED1E0A60EE58
:10563000800AC0ED000AB6F9001000EE901AF8EEEC
:10564000E00A60EE800AC0ED010AB5F9001000EE34
:10565000901AF8EEE00A20EE800A80ED020AB4F912
:10566000001000EE101AF8EEC00A9FED100A80EE4E
:10567000801A80ED031AB8F9001000EE901AF8EEC7
:10568000E00A80EE801A80ED041AB9F9001000EEED
:10569000901AF8EEE00A80EE801A80ED051ABDE857
:1056A000F08700000000003A4812001033338341B5
:1056B000752000F01BB810B501216B2000F035F803
:1056C00000216C2000F031F80921192000F02DF89C
:1056D00006211A2000F029F818211B2000F025F8D7
:1056E0001821BDE810401C2000F01FB810B504467A
:1056F00000F07DFCD02000F064FC00F02FFC204680
:1057000000F05FFC00F02AFC00F071FCD12000F0FA
:1057100058FC00F023FC00F030FC0446012000F0AF
:1057200045FC00F073FC204610BD70B50D460446E4
:1057300000F05DFCD02000F044FC00F00FFC20469F
:1057400000F03FFC00F00AFC284600F03AFC00F0B4
:1057500005FCBDE8704000F059BC00007FB5002496
:1057600015480094019402941249039401604FF487
:105770008031C0E901140461047680F820400F49AB
:10578000C0E90A140125C561C46080F83040456154
:10579000FCF748F808B1FBF70EFE0520CDE900053F
:1057A000694602940448FBF7EFFE002801D0FBF79E
:1057B00002FE7FBD00200140240200100100000F06
:1057C0007FB5002415480094019402941249039473
:1057D00001604FF48031C0E901140461047680F85F
:1057E00020400F49C0E90A140125C561C46080F852
:1057F00030404561FCF716F808B1FBF7DCFD0D20E1
:10580000CDE90005694602940448FBF7BDFE002877
:1058100001D0FBF7D0FD7FBD002101406C020010DC
:105820000100000F0E4810B50C49016000214160D5
:105830008160C1608162C16201634163FCF72BFA40
:1058400008B1FBF7B8FD01210548FCF743F9002832
:1058500003D0BDE81040FBF7AEBD10BD00B0024064
:10586000B402001000B587B01C216846FAF778FF33
:105870001548144900F1080C016001214160002124
:10588000042210238CE80E00402343614FF4C073C0
:10589000C0E906315302C0E90831D1028162022019
:1058A00007218DE8070003910321CDE9041006903C
:1058B00069460548FEF720F8002801D0FBF77BFD7C
:1058C00007B000BD400100A05002002010B5194BE8
:1058D00000220121184822F015FB164C243C606080
:1058E00010B1012122F04AFB124B0022103301219A
:1058F000124822F007FBA06010B1012122F03EFB0C
:105900000C4B0022103B01210D4822F0FBFA2060D5
:1059100010B1012122F032FB0A4A00210A4822F08C
:10592000ABFA084AE06024320021084822F0A4FAC9
:10593000206110BD24000020B5D90208B9D90208A1
:10594000E9D90208A0FD0208E5510008090B00088A
:105950002DE9F04F87B014216846FAF701FF6C4833
:105960000024016841F010010160016801F010019C
:105970000591016841F004010160016801F0040132
:105980000591016841F020010160016801F02001EA
:105990000591016841F080010160016801F080011A
:1059A0000591016841F001010160016801F0010108
:1059B0000591016841F002010160016801F00201F6
:1059C0000591016841F040010160016801F040016A
:1059D0000591016841F00801016000684D4D00F03B
:1059E00008000590012218212846FCF7ACFDDFF8DD
:1059F0002891002216214846FCF7A5FDDFF81CA1DE
:105A0000002280215046FCF79EFDDFF814B14FF4D0
:105A10004057002239465846FCF795FD4FF4C048E0
:105A2000002241463F48FCF78EFD1820009001AA55
:105A30001120032682E8510069462846FCF764FCE1
:105A40004FF40050009028010125CDE90105694679
:105A50004846FCF759FC402000900220CDE90104A3
:105A6000CDE9034669463048FCF74EFC162000900D
:105A7000CDE90154694648460394FCF745FC48F2D9
:105A800007004FF49016CDE900066946029450468F
:105A9000FCF73AFC80200090CDE90154694650465D
:105AA0000394FCF731FC2020CDE9000669460294FE
:105AB0004846FCF729FC0420CDE9000469461B4850
:105AC0000294FCF721FCE802CDE90004694658463F
:105AD0000294FCF719FC0097CDE901546946584639
